:100000000EC054C014C013C012C011C010C00FC025
:100010000EC00DC00CC00BC00AC009C008C011241E
:100020001FBECFE5D2E0DEBFCDBF3BD05EC0E8CF84
:100030002FEF89E698E1215080409040E1F700C021
:10004000000088B3805888BBF3CF8BE090E038E0A5
:1000500028E1F894B99A48B338BB4AE14A95F1F7D8
:1000600000C027BB48B318BA78945FEF60E742E05E
:10007000515060404040E1F700C00000019749F74F
:10008000F894C39A85B7806285BF88950895F894DF
:1000900088E187BBB099CCDF80E48BBF82E085BF6D
:1000A0000895F5DFD2DF80E090E008951F920F926F
:1000B0000FB60F9211248F93B99A88B388E088BB4A
:1000C000F8948AE18A95F1F700C088E187BB88B38C
:1000D00018BA80E188BB85B7806285BF88958F910B
:0E00E0000F900FBE0F901F901895F894FFCF51
:00000001FF
