:020000020000FC
:1000000018C00FC00DC00CC00BC00AC009C008C08A
:1000100007C006C005C004C003C002C001C000C0C4
:100020001895C8BBF89431D0B8BB40E148BB88955F
:10003000FFCFF894AAE1A7BBBB27CAE046B3417043
:1000400041F090E188E088BB16D0882788BB13D0A8
:10005000F9CF80E48BBF82E085BF8AE0F894C8BB0B
:1000600014D0B8BB789407D08A95C1F7F89488E08B
:1000700088BB8895FFCF4FE35FE76FEF6A95F1F795
:100080005A95D9F74A95C1F7089569E16A95F1F74C
:020090000895D1
:00000001FF
